:100000000C94CD000C94F5000C94F5000C94F500C4
:100010000C94F5000C94F5000C94F5000C94F5008C
:100020000C94F5000C94F5000C946C050C94DB0515
:100030000C94F5000C94F5000C94F5000C94F5006C
:100040000C94F5000C94F5000C94F5000C94F5005C
:100050000C94F5000C94F5000C94F5000C946508D4
:100060000C94F5000C9433080C940D080C94F500D6
:100070000C94F5000C94F5000C94F5000C94F5002C
:100080000C94F5000C94F5000C94F5000C94F5001C
:100090000C94F5000C94F5000C94AF080C94F5004A
:1000A0000C94F5000C94F5000C94F500000000028F
:1000B00000090F0000030401000C00000000000014
:1000C0000000000000000000000000080B00020219
:1000D00002000009040000010202000005240010D3
:1000E000010524010101042402060524060001077C
:1000F00005810310004009040100020A0000000706
:1001000005020240000007058302400000040309C5
:100110000412010002EF0201404123378000010177
:1001200002030141726475696E6F204C4C430041BB
:10013000726475696E6F204D6963726F0000000014
:1001400000250028002B002E0031000000000024B4
:100150000027002A002D00300004040404040304D6
:100160000502020202040302020202060606060655
:100170000604040202020404040802011040804044
:1001800010204080408008020401804020100201BD
:1001900010801020404020002E0911241FBECFEFF8
:1001A000DAE0DEBFCDBF11E0A0E0B1E0ECEAF7E1BC
:1001B00002C005900D92A833B107D9F723E0A8E358
:1001C000B1E001C01D92A834B207E1F710E0CDEC18
:1001D000D0E004C02197FE010E94CE0BCC3CD10799
:1001E000C9F70E946B090C94D40B0C94000090E0AA
:1001F000FC01E858FE4F2491875A9E4FFC018491E0
:10020000882399F090E0880F991FFC01E55BFE4F71
:10021000A591B491FC01E35CFE4F859194918FB759
:10022000F894EC91E22BEC938FBF0895FC01809140
:10023000A501882311F13FB7F89482E08093E9008B
:100240002091F200822F90E01816190614F481E034
:1002500090E0882339F0289A44E64093A401409125
:10026000F1004083222339F02091F200211103C0D4
:100270002BE62093E8003FBF08958FEF9FEF08958E
:100280002FB7F89483E08093E9009091E800892FDC
:10029000807295FF04C09091F20080E4891B2FBF0B
:1002A000089580919C0181110DC082E08093980196
:1002B00084E08093990110929B0110929A0181E051
:1002C00080939C0188E991E00895CF93DF931F927A
:1002D000CDB7DEB76983DC01ED91FC910280F3813B
:1002E000E02D41E050E0BE016F5F7F4F09950F9018
:1002F000DF91CF91089583E08093E9008091F2002F
:10030000882319F08AE38093E80008950E94400151
:1003100090E00895CF93DF931F92CDB7DEB7FC0135
:100320008485958597FD08C02FEF3FEF358724879B
:100330000F90DF91CF910895CE0101960E94160192
:10034000019719F4898190E0F3CF8FEF9FEFF0CF01
:100350000F931F93CF93DF931F92CDB7DEB78C011E
:10036000FC018485958597FF0BC0CE0101960E9404
:100370001601019771F4898190E0F80195878487CF
:10038000F801848595850F90DF91CF911F910F9192
:1003900008958FEF9FEFF1CFFC018485958597FD40
:1003A0000BC09FB7F89482E08093E9008091F2003F
:1003B0009FBF90E0019608959FB7F89482E08093E4
:1003C000E9008091F2009FBF90E008954091920172
:1003D0005091930120919001309191014217530760
:1003E000B4F49091E8009570E1F39091E80092FDEB
:1003F00019C08093F1008091920190919301019630
:100400008F739927892B19F48EEF8093E8008091E0
:1004100092019091930101969093930180939201A0
:1004200081E0089580E00895EF92FF920F931F936B
:10043000CF93DF93F82E192FE62E042F81E0860F3D
:10044000880F0E94E60183E00E94E601CF2DD12FA4
:10045000EC0EFD2EF11CCE15DF05B9F007FF13C021
:10046000FE0184910E94E601182F80E00E94E601BF
:10047000812321968111EFCFDF91CF911F910F91B1
:10048000FF90EF9008958881EDCF81E0F5CFDF9266
:10049000EF92FF920F931F93CF93DF93D82E8A0191
:1004A000EB017B01E40EF51ECE15DF0559F0D7FEFA
:1004B00012C0FE0184910E94E60121968111F4CFC1
:1004C0000FEF1FEFC801DF91CF911F910F91FF90A8
:1004D000EF90DF9008958881EECF0F931F93CF9315
:1004E000DF931F92CDB7DEB782E0898342E450E00C
:1004F0006BEC70E080E80E9447020E945101DC0131
:1005000012960D911C910115110589F0D801ED91FC
:10051000FC910280F381E02DBE016F5F7F4FC80127
:10052000099597FD04C0F80100851185ECCF8981FC
:100530000F90DF91CF911F910F910895615030F08E
:100540002091F100FC0120830196F8CF289A84E6DF
:100550008093A4010895AF92BF92CF92DF92EF9261
:10056000FF920F931F93CF93DF936C017B018B015D
:10057000040F151FEB015E01AE18BF08C017D107AD
:1005800059F06991D601ED91FC910190F081E02D37
:10059000C6010995892B79F7C501DF91CF911F918C
:1005A0000F91FF90EF90DF90CF90BF90AF900895A4
:1005B000FC01538D448D252F30E0842F90E0821B69
:1005C000930B541710F0CF96089501970895FC01EE
:1005D000918D828D981761F0A28DAE0FBF2FB11D46
:1005E0005D968C91928D9F5F9F73928F90E008959E
:1005F0008FEF9FEF0895FC01918D828D981731F058
:10060000828DE80FF11D858D90E008958FEF9FEFAB
:100610000895FC01918D228D892F90E0805C9F4F81
:10062000821B91098F73992708958BEA92E00E94AB
:10063000090321E0892B09F420E0822F089580E04E
:1006400090E0892B29F00E94150381110C94000081
:100650000895FC01A48DA80FB92FB11DA35ABF4F57
:100660002C91848D90E001968F739927848FA689B1
:10067000B7892C93A089B1898C9182748C93938DC6
:10068000848D981306C00288F389E02D80818F7DC8
:1006900080830895EF92FF920F931F93CF93DF9380
:1006A000EC0181E0888F9B8D8C8D981319C0E889AF
:1006B000F989808185FF14C09FB7F894EE89FF897E
:1006C0006083E889F9898081827480839FBF81E09B
:1006D00090E0DF91CF911F910F91FF90EF900895DF
:1006E000F62E0B8D10E00F5F1F4F0F731127E02EBA
:1006F0008C8D8E110CC00FB607FCFACFE889F989F2
:10070000808185FFF5CFCE010E942903F1CFEB8DCB
:10071000EC0FFD2FF11DE35AFF4FF0829FB7F894C5
:100720000B8FEA89FB8980818062CFCFCF93DF93E3
:10073000EC01888D8823B9F0AA89BB89E889F989F9
:100740008C9185FD03C0808186FD0DC00FB607FC2E
:10075000F7CF8C9185FFF2CF808185FFEDCFCE0161
:100760000E942903E9CFDF91CF910895282F30E02F
:10077000F901E455FF4F9491F901E858FE4F849137
:10078000275A3E4FF9012491222309F430C09923BE
:10079000E9F091509F30D0F4E92FF0E0EE52FC4F99
:1007A0000C94CE0B00040404E103F803FC03E603FD
:1007B000E603E60307040D04110415041B04E60315
:1007C0001F04909180009F7790938000E22FF0E0CB
:1007D000EE0FFF1FE35CFE4FA591B4919FB7F89415
:1007E000EC91611132C080958E238C939FBF089548
:1007F000909180009F7DE8CF90918000977FE4CF1B
:1008000094B59F7794BDE2CF94B59F7DFBCF909137
:1008100090009F7790939000D9CF909190009F7D0A
:10082000F9CF90919000977FF5CF9091C0009F777E
:100830009093C000CBCF9091C0009F7DF9CF909155
:10084000C200977F9093C200C1CF8E2BCECFCF93A3
:10085000E7EAF1E0AFEF90E0208187FF05C027FFD6
:1008600046C0AF3F41F406C0821709F440C0AF3F15
:1008700011F427FDA92F9F5F3996943169F787FD01
:1008800039C0AF3F09F436C0C82F89E0A802D001B3
:100890001124A955BE4FCC932091A60111962C93FB
:1008A00011978C2F0C2E000C990BFC01E75AFE4F70
:1008B000E491F0E0EE0FFF1FE35CFE4F4591549191
:1008C00013965C934E931297FC01E858FE4FE49107
:1008D0001496EC93149715966C9360E0211161E0E7
:1008E0008C2F0E94B6038C2FCF910C94F700658358
:1008F00087FDBDCFCF910895CF93C82F60E00E94B0
:100900002704E7EAF1E090E080E02081C2130DC007
:1009100029E0289FF001299FF00D1124E955FE4F91
:1009200084E187838087CF91089501963996843139
:10093000910559F7F8CF3FB7F8948091390190911C
:100940003A01A0913B01B0913C0126B5A89B05C09E
:100950002F3F19F00196A11DB11D3FBFBA2FA92F3E
:10096000982F8827BC01CD01620F711D811D911D3B
:1009700042E0660F771F881F991F4A95D1F70895A7
:10098000CF92DF92EF92FF920E949B046B017C0159
:100990000E949B046C197D098E099F09683E734073
:1009A00081059105A8F3FF90EF90DF90CF90089517
:1009B0008F929F92AF92BF92CF92DF92EF92FF926F
:1009C0000F931F93CF93DF936C017B018A0180917A
:1009D0000B01882309F458C08091A501882309F4EC
:1009E00053C08091970180FF05C08091E000826034
:1009F0008093E000E801B12C8AEFA82E93E0892EC5
:100A00002AE3922E209711F4BB20B9F10E944001F5
:100A1000811106C0AA94AA20B9F10E94C004F2CFA5
:100A20008C171D0611F00CF08C2F9FB7F894809254
:100A3000E9002091E80025FD02C09FBFE3CF282FE9
:100A400030E0C21BD30BF701815020F0419140935D
:100A5000F100FACFE20EF31EBB2021F09092E800E5
:100A6000B12CEBCF8091E80085FDE7CF9092E800B4
:100A7000BB24B394209709F3F3CF5D9A84E6809367
:100A80009601101611063CF081E090E0F601938388
:100A9000828310E000E0C801DF91CF911F910F9198
:100AA000FF90EF90DF90CF90BF90AF909F908F908E
:100AB00008952091420130E0A90102C05595479563
:100AC0008A95E2F7CA0181700895662319F0642FB0
:100AD0000C94270460E0FCCF1F920F920FB60F9288
:100AE00011248F939F938091E1009091E100937F77
:100AF0009093E10083FF0FC01092E90091E0909382
:100B0000EB001092EC0092E39093ED001092A5019F
:100B100098E09093F00082FF22C093E09093E90068
:100B20009091F200992319F09AE39093E800909144
:100B30009601992341F090919601915090939601DE
:100B4000911101C05D989091A401992341F0909179
:100B5000A40191509093A401911101C0289884FFA1
:100B600018C08091E2008E7E81608093E2008091C7
:100B7000E1008F7E8093E100809197018E7E8061FD
:100B8000809397019F918F910F900FBE0F901F90B0
:100B9000189580FFF7CF8091E2008E7E8061809370
:100BA000E2008091E1008E7E8093E10080919701C8
:100BB0008E7E8160E5CF1F920F920FB60F921124A7
:100BC000CF92DF92EF92FF920F931F932F933F9359
:100BD0004F935F936F937F938F939F93AF93BF9345
:100BE000EF93FF93CF93DF93CDB7DEB76C97DEBF64
:100BF000CDBF1092E9008091E80083FF25C068E036
:100C0000CE0145960E949E0282EF8093E8008D8976
:100C100087FF39C09091E80090FFFCCF982F907625
:100C200009F034C19E894F89588D2F89F88C911114
:100C300031C0803861F5809195018093F100109268
:100C4000F1008EEF8093E8006C960FB6F894DEBF4B
:100C50000FBECDBFDF91CF91FF91EF91BF91AF91CB
:100C60009F918F917F916F915F914F913F912F91C4
:100C70001F910F91FF90EF90DF90CF900F900FBEDC
:100C80000F901F9018959EEF9093E800C7CF109299
:100C9000F100D5CF913059F48111D3CF41305105B6
:100CA00081F6809195018D7F80939501CACF933015
:100CB00049F48111C6CF4130510519F68091950153
:100CC0008260F2CF953041F48091E80080FFFCCF44
:100CD00020682093E300B5CF963009F0A9C00B8DB2
:100CE0001C8D22E01092E900109293011092920163
:100CF000F2122EC010929101109290010E946D028A
:100D00001F8299E09983FA8291E09E8390EA988706
:100D10009AEF99872091920130919301275F3F4F7D
:100D20003C832B838D831092E900109293011092E3
:100D30009201109391010093900149E050E0BE01AF
:100D40006F5F7F4F80E00E9447020E946D0279CF63
:100D500010939101009390010E945101DC011296C1
:100D60000D911C910115110509F451C1D801ED91A6
:100D7000FC910480F581E02DBE016B5E7F4FC801C0
:100D80000995009709F03EC1F80100851185EACF69
:100D9000F3E0FF120EC08F89882309F440C082302F
:100DA00061F440E86DE08FE291E00E94140281114D
:100DB00048CF81E28093EB0047CF813029F440E8AF
:100DC0006BE083E291E0F1CF833099F70E9451010B
:100DD000DC011296ED90FC908E010F5F1F4F6801B1
:100DE000E114F10479F0D701ED91FC910680F781CF
:100DF000E02DB801C7010995080F111DF701E08426
:100E0000F184EECFD8011C92F60101900020E9F7A1
:100E10003197BF016C197D0940E0C601C6CF6DE076
:100E200071E0FB01449150E080E80E94470209CF45
:100E3000973009F4BECF983021F481E08093F1001F
:100E400000CF993009F0FDCE837009F0B2CFEEE00B
:100E5000F1E081E031E096E32191222371F080936B
:100E6000E9003093EB00DF0111972C912093EC0007
:100E70009093ED008F5F873079F78EE78093EA00DB
:100E80001092EA008F898093A501DBCE8B8D9C8D1B
:100E90001092E900109293011092920190939101A7
:100EA00080939001898D811192C08E899D89913A9C
:100EB00049F4813209F07DCF47E050E064E071E011
:100EC00080E0B3CF913209F074CF833269F48F8917
:100ED000988DB0E0A0E08093000190930101A09371
:100EE0000201B0930301ADCE803269F48091E80035
:100EF00082FFFCCF67E084E091E00E949E028BEFCE
:100F00008093E8009ECE823209F09BCE8F89809339
:100F10000B01EEEFFFE7859194918B3F9C4D51F1D2
:100F2000E0E0F8E08091040190910501A0910601B4
:100F3000B0910701803B9440A105B105F1F4809187
:100F40000B0180FD1AC0EE3F8AE0F80789F587E7BC
:100F500097E791838083809160008093940188E17A
:100F60009BE00FB6F894A895809360000FBE909315
:100F7000600067CEEEEFFAE0D5CF808191818737B0
:100F8000974709F05ECEA8958091600088618093B4
:100F900060008091940180936000EE3F2AE0F207A8
:100FA00089F08091FE0A9091FF0A9183808349CE57
:100FB000808191818737980751F29093FF0A80933F
:100FC000FE0AC5CF1092FF0A1092FE0A3ACE0E9486
:100FD0005101DC0112960D911C910115110509F4C6
:100FE000E8CED801ED91FC910190F081E02DBE0199
:100FF0006B5E7F4FC8010995811123CEF8010085F2
:101000001185EBCF181619060CF41BCED2CEF1E0E9
:10101000FF12BECE61E171E004CF1F920F920FB6B6
:101020000F9211242F933F934F935F936F937F936E
:101030008F939F93AF93BF93EF93FF938BEA92E0CD
:101040000E942903FF91EF91BF91AF919F918F91E2
:101050007F916F915F914F913F912F910F900FBEB4
:101060000F901F9018951F920F920FB60F92112498
:101070002F938F939F93EF93FF93E091BB02F09197
:10108000BC028081E091C102F091C20282FD1BC0CE
:1010900090818091C4028F5F8F732091C502821767
:1010A00041F0E091C402F0E0E555FD4F958F80934B
:1010B000C402FF91EF919F918F912F910F900FBEDE
:1010C0000F901F9018958081F4CF1F920F920FB64A
:1010D0000F9211242F933F938F939F93AF93BF93BE
:1010E0008091870190918801A0918901B0918A0136
:1010F0003091380123E0230F2D3758F50196A11DBB
:10110000B11D209338018093870190938801A093AB
:101110008901B0938A018091390190913A01A0919F
:101120003B01B0913C010196A11DB11D8093390195
:1011300090933A01A0933B01B0933C01BF91AF91D2
:101140009F918F913F912F910F900FBE0F901F9005
:10115000189526E8230F0296A11DB11DD2CF1F922C
:101160000F920FB60F9211242F933F934F936F93CB
:101170007F938F939F93AF93BF93EF93FF93809150
:101180000C018F5F80930C01811138C0E7EAF1E018
:1011900047818581411103C090859923E9F090E052
:1011A0003681232F30E0BC01621B730B1616170625
:1011B0004CF4442389F0240F311D2817390764F4B7
:1011C000C9010AC0672B41F04085442329F0241B44
:1011D000310982179307A4F386838681882349F017
:1011E0009181A281B3818481911131C09C91892B1D
:1011F0008C93399682E0EB35F80751F6E7EAF1E097
:10120000808187FD0FC080910C01968198130AC0E0
:10121000A281B3818481918191111DC09C9180959F
:1012200089238C93399682E0EB35F80749F7FF91D3
:10123000EF91BF91AF919F918F917F916F914F915E
:101240003F912F910F900FBE0F901F9018959C917A
:1012500080958923CDCF9C91892BE3CFEBE5F2E0FC
:101260001382128288EE93E0A0E0B0E0848395833D
:10127000A683B78328E131E0318320832FEF3FEF4E
:1012800035872487EBEAF2E0138212828483958308
:10129000A683B7838AE291E0918380838DEC90E00E
:1012A000958784878CEC90E09787868788EC90E020
:1012B000918B808B89EC90E0938B828B8AEC90E011
:1012C000958B848B8EEC90E0978B868B118E128E93
:1012D000138E148E0895789484B5826084BD84B58D
:1012E000816084BD85B5826085BD85B5816085BD21
:1012F00080916E00816080936E00109281008091D9
:101300008100826080938100809181008160809360
:1013100081008091800081608093800080919100A5
:101320008260809391008091910081608093910010
:10133000809190008160809390008091C1008460D2
:101340008093C1008091C10082608093C100809130
:10135000C10081608093C1008091C300816080934F
:10136000C3008091C00082608093C0008091C20061
:1013700081608093C20080917A00846080937A00BB
:1013800080917A00826080937A0080917A008160F7
:1013900080937A0080917A00806880937A0010921E
:1013A000A50110929501109297018091D70081605C
:1013B0008093D70080EA8093D80089B5806189BD89
:1013C00089B5826089BD09B400FEFDCF0E94C004CA
:1013D0008091D8008F7C80618093D8008091E0005C
:1013E000807F8093E0008091E1008E7E8093E10019
:1013F0008DE08093E200559A209A5D9828988BEAB8
:1014000092E09093860180938501E091BB02F09178
:10141000BC0292E09083E091B702F091B802108292
:10142000E091B902F091BA0287E680831092C3027C
:10143000E091BF02F091C00286E08083E091BD029E
:10144000F091BE02808180618083E091BD02F091C5
:10145000BE02808188608083E091BD02F091BE026F
:10146000808180688083E091BD02F091BE0280811E
:101470008F7D808390933D0182E00E94F70060E0C1
:1014800082E00E94B6031092440110924301109230
:10149000C00084E08093C1001092C2001092C3008B
:1014A0001092C4001092D10082E88093D10080E4B1
:1014B00080937200E7EAF1E08BE592E02FEF208362
:1014C0001182138212821782108639968E179F0717
:1014D000B1F71092A60187E00E947C0483E00E948D
:1014E0007C0484E00E947C0485E00E947C0486E009
:1014F0000E947C0488E00E947C0489E00E947C04B5
:101500008CE00E947C04D1E00BE91FE0B0E0EB2E00
:10151000B0E0FB2E8091850190918601DC01ED9178
:10152000FC910084F185E02D0995892B09F4FAC01E
:10153000D12CC0E08091850190918601DC01ED9174
:10154000FC910084F185E02D0995892BF1F08091C3
:10155000850190918601DC01ED91FC910284F38577
:10156000E02DDD2029F00995C8010197F1F7E2CFC0
:10157000DD24D394C03409F0D12C0995EC2FF0E090
:10158000EB5BFE4F8083CF5FEFCFDD2009F483C09C
:10159000809143019091440101969093440180937E
:1015A000430180E00E945905A82E82E00E9459055F
:1015B000D82E83E00E945905C82E84E00E94590568
:1015C000B82E87E00E945905C6E648E2811102C0A4
:1015D000CFEF44E66A2D87E00E9465054C2F6B2D06
:1015E00085E00E9465054C2F6C2D86E00E94650504
:1015F0004C2F6B2D83E00E9465054C2F6C2D84E0F1
:101600000E9465054C2F6D2D88E00E9465054C2FCA
:101610006D2D89E00E9465054C2F6D2D8CE00E9498
:1016200065052FB7F8948091870190918801A0916A
:101630008901B0918A012FBF40918C0150918D0199
:1016400060918E0170918F014C015D01841A950AA1
:10165000A60AB70AF8EE8F16F3E09F06A104B104BC
:1016600008F48DC080938C0190938D01A0938E011E
:10167000B0938F0180918B018D2780938B01E114B2
:10168000F10409F447CF0E941503882309F442CFDF
:101690000E9400003FCFC43008F464C08C2F90E05B
:1016A0008B5B9E4FFC01329720810197FC0180816A
:1016B000322F282FC250E5E4F1E08FEF9FEF40E09A
:1016C0005191852758E0BC016170772796958795E1
:1016D000672B21F061E0862760EA9627515099F741
:1016E0004F5F4C1768F32817390709F03EC0809107
:1016F0004501813021F480914601809342012FB74A
:10170000F8948091870190918801A0918901B0910E
:101710008A012FBF80933E0190933F01A093400127
:10172000B09341012FB7F89480918701909188017F
:10173000A0918901B0918A012FBF40913E01509143
:101740003F016091400170914101841B950BA60BF4
:10175000B70B883E9340A105B10508F422CF109243
:1017600042011FCFC150C330E8F6809143019091F0
:10177000440101969093440180934301D3CF841791
:101780009507A607B70708F07ACF80938C0190934E
:101790008D01A0938E01B0938F0171CFEE0FFF1FCB
:0C17A0000590F491E02D0994F894FFCF1F
:1017AC00FFFFFFFF00E1000000000000FF00C18010
:1017BC0081000000000000006501D80486017B0157
:1017CC00CC018A01A801000000004A03AB02D80238
:0817DC0096030903E702FB027A
:00000001FF
